S016000062696E2F52656C656173652F434D332E733139C3
S31508000000FF4F0020F9010008590200087F02000886
S315080000105B0200085D0200085F020008000000009D
S315080000200000000000000000000000004107000872
S315080000306302000800000000A1070008E5070008A1
S315080000403D0200083D0200083D0200084102000882
S315080000503D0200083D0200083D0200083D02000876
S315080000603D0200083D0200083D0200083D02000866
S315080000703D0200083D0200083D0200083D02000856
S315080000803D0200083D0200083D0200083D02000846
S31508000090690200083D0200083D0200083D0200080A
S315080000A03D0200083D0200083D0200083D02000826
S315080000B03D0200083D0200083D0200083D02000816
S315080000C03D0200083D0200083D0200083D02000806
S315080000D03D0200083D0200083D0200083D020008F6
S315080000E07D0200083D0200086D02000800000000BD
S315080000F000000000000000000000000000000000F2
S3110800010000000000000000005FF808F195
S3150800011080600008000000200C000020100000206D
S3150800012050150020D0400B1CD1409C46203AD340A5
S31508000130184352426346934018437047054A9369E9
S3150800014043F010039361A2F58032536843F4001319
S31508000150536070470010024010B5044CE3686420F1
S3150800016083F40053E36001F0E1FBF7E70010014078
S3150800017010B590B01422002101A805F055FF2822D9
S31508000180002106A805F050FF012306934FF480339B
S31508000190022407930E934FF4E01306A80D940F93C9
S315080001A004F06CF800B1FEE70F2301934FF4806367
S315080001B003900590214601A80294049304F044FB99
S315080001C000B1FEE710B010BD07B5FFF7D1FFFFF786
S315080001D0B5FF0122002305498DE80C0004484FF4B9
S315080001E07A7200F0A5FF01F021FAFEE758600008D0
S315080001F059010008FEE70000002103E00A4B5B589E
S315080002004350043109480A4B42189A42F6D3094A20
S3150800021002E0002342F8043B074B9A42F9D300F068
S3150800022031F8FFF7D1BF7047806000080000002052
S315080002300C0000201000002050150020FEE70000EA
S315080002400822034BC3F880210022024B5A607047EC
S3150800025000E100E0002800407047FEE7FEE7FEE701
S315080002607047704770477047704700004FF4802208
S31508000270014B5A61704700BF00040140704701BE38
S31508000280FEE700000F4B1A6842F001021A6059682F
S315080002900D4A0A405A601A6822F0847222F48032A3
S315080002A01A601A6822F480221A605A6822F4FE023A
S315080002B05A604FF41F029A604FF00062034B9A602F
S315080002C0704700BF001002400000FFF800ED00E094
S315080002D0114A124B516801F00C01042901D0082972
S315080002E00AD00F49196052680E49C2F30312895C95
S315080002F01A68CA401A60704751685068C1F383414A
S31508000300C00301F1020102D407484143EAE75068F5
S315080003108003F9D40248F8E70010024000000020E4
S3150800032000127A006160000800093D0010B51C2023
S3150800033000F00AF9044620B1002340F8043B00F017
S3150800034084F9204610BD00002DE9F84306460D46FF
S3150800035099469046089F01F0A9F9346804EA05030E
S31508000360B9F1000F13D1A3B9D7B1B8F1000F0CBF7B
S3150800037000214FF08071B9F1000F01D041F0806182
S315080003803A462943301D01F0C1FB002408E09D428E
S31508000390EAD1B8F1000F02D024EA0503336000273A
S315080003A001F02CFAD7B138B94FF08052114B1A60C8
S315080003B0BFF34F8FBFF36F8F01F0FEFD8301044635
S315080003C00AD400F0D1F9346805EA0403B9F1000F3C
S315080003D007D143B900F0D8F924F07F442046BDE898
S315080003E0F8839D42F6D1B8F1000FF3D024EA05054B
S315080003F03560EFE704ED00E070B506460C4600F000
S31508000400B3F9356825EA0404346000F0BDF92846D6
S3150800041070BDEFF311834FF0BF0282F31188BFF36B
S315080004206F8FBFF34F8F006883F311887047F8B555
S3150800043004460D4600F10C0601F038F923682069D8
S315080004402B4300252360B042216806D121EA050125
S31508000450216001F0D3F92068F8BD90E8880013F010
S31508000460806F23F07F4203D10A4204D13846EAE777
S3150800047032EA010EFAD1DB0100D5154341F00071CD
S3150800048001F090FBF2E700002DE9F04105468846A9
S3150800049016461F4601F00AF92C684146284644EAE2
S315080004A00804FFF7C4FF36EA040325D100272B68A2
S315080004B023EA06032B6001F0A1F9D7B138B94FF04A
S315080004C08052134B1A60BFF34F8FBFF36F8F01F043
S315080004D073FD830104460AD400F046F92C6836EA0F
S315080004E0040304BF24EA06062E6000F04DF924F042
S315080004F07F442046BDE8F0813FB13A4646F0A06108
S31508000500281D01F003FB0024D5E72C68D3E700BFBC
S3150800051004ED00E010B5044601F0C8F8636833B985
S31508000520204600F06BF8BDE8104001F067B94FF0BF
S315080005300071206901F036FBF0E7FFF778BFFFF797
S315080005405BBF00B18069704770B5044601F0AEF82C
S315080005502548016871B941F2F835244B244A23F03D
S31508000560070313605160234A83E82400012382E8C5
S31508000570220003602CB1083463071CBF24F007046B
S31508000580083441F2F633621E9A4207D8184A1368AD
S3150800059059688C4204D81748834207D100251DE0C4
S315080005A018680028F7D01A460346F1E71868156850
S315080005B010600A1B102A05F108050AD919194A609C
S315080005C05C604E680A4A10684468A6420AD8086001
S315080005D0116009495B680A68D21A0A6001F00EF9C7
S315080005E0284670BD0246EEE71814002018000020C1
S315080005F01C140020101400200400002038B50446FE
S31508000600B8B1A0F1080501F051F854F8040C094AEC
S3150800061011684B6898420AD844F8081C1560064ABF
S31508000620136803441360BDE8384001F0E7B80A468A
S31508000630EEE738BD1C14002004000020014B1868A2
S31508000640704700BF04000020704700F108034360AC
S315080006504FF0FF32C3600361002382600360704776
S3150800066000230361704743689A684B608A609A68FA
S3150800067051609960036808610133036070470A682E
S3150800068030B5531C0AD103695A684A6091608B6079
S315080006905960036808610133036030BD00F108033F
S315080006A05C682568AA42EFD32346F9E74168826861
S315080006B003698A60826851605968884208BF5A602F
S315080006C0002202611A68013A1A6018687047002306
S315080006D082B001934FF0BF0383F31188BFF36F8F86
S315080006E0BFF34F8F019B002BFCD002B07047000070
S315080006F006480068006880F3088862B661B6BFF3EA
S315080007004F8FBFF36F8F00DF00BF000008ED00E0DA
S315080007104FF0807340F8043C054B21F0010140F886
S31508000720081C40F80C3C40F8202C4038704700BFA5
S31508000730CF060008000000000000000000000000CE
S31508000740074B19680868B0E8F00F80F30988BFF30B
S315080007506F8F4FF0000080F311884EF00D0E704732
S3150800076024140020704700004FF0BF0383F311885C
S31508000770BFF36F8FBFF34F8F024A136801331360BD
S31508000780704700BF08000020034A1368013B136046
S315080007900BB983F311887047080000200000000099
S315080007A0EFF30980BFF36F8F0D4B1A6820E9F00F3E
S315080007B010602DE908404FF0BF0080F3118801F062
S315080007C007F94FF0000080F31188BDE80840196862
S315080007D00868B0E8F00F80F30988BFF36F8F704799
S315080007E02414002008B54FF0BF0383F31188BFF324
S315080007F06F8FBFF34F8F00F07BFF18B14FF0805219
S31508000800024B1A60002383F3118808BD04ED00E04B
S315080008100022054B05491A600A60054A0549116018
S3150800082007221A60704700BF10E000E018E000E0F9
S3150800083014E000E07FFC0A0010B500240A4B1A6891
S3150800084042F47F021A601A6842F07F421A60FFF784
S31508000850DFFF064B1C60FFF74BFF01F0B9F8FFF707
S3150800086036FF204610BD00BF20ED00E0080000203E
S3150800087010B50446FFF778FFA46BFFF785FFB4FAB7
S3150800088084F0400910BD70B51546026C0446866BA7
S3150800089042B905689DB9406801F018FB65600136E4
S315080008A0A66370BD6DB9806805F0B3FBA368226CBA
S315080008B013446268A360934201D32368A3600020AF
S315080008C0EDE7C06805F0A5FB236CE2685B4221688A
S315080008D01A448A42E2603EBF62689B18E360022DB2
S315080008E0EDD10EB1013EEAE73046D8E703461A6C69
S315080008F010B4084662B1D9685C681144A142D9604F
S3150800090028BF196810BC28BFD960D96805F081BB13
S3150800091010BC704770B50446FFF726FF94F845509B
S3150800092004F124066DB2002D14DCFF2384F845304B
S31508000930FFF72AFFFFF718FF94F8445004F1100652
S315080009406DB2002D12DCFF2384F84430BDE87040F8
S31508000950FFF71ABF636A002BE7D0304601F0EAF8C2
S3150800096008B101F08FF9013D6DB2DCE72369002B70
S31508000970E9D0304601F0DEF808B101F083F9013D0F
S315080009806DB2DEE738B504460D46FFF7EDFE206C7E
S31508000990E36B22684343D1181B1A13446160E36072
S315080009A00021FF23A163A26084F8443084F845300F
S315080009B095B9236963B104F1100001F0BBF838B1A9
S315080009C04FF08052094B1A60BFF34F8FBFF36F8FFA
S315080009D0FFF7DAFE012038BD04F11000FFF735FEF7
S315080009E004F12400FFF731FEF2E700BF04ED00E052
S315080009F0F8B50646484350300D461746FFF7A4FD9E
S31508000A00044648B155B92060E663256401212046AD
S31508000A10FFF7B8FF84F84C702046F8BD00F1500384
S31508000A200360F1E710B502220C460021FFF7E0FF4C
S31508000A3000B1846310BD00002DE9FF470026044677
S31508000A4089461F46B046DFF8E0A00192FFF78CFE04
S31508000A50A26BE36B9A4201D3022F19D13A46494653
S31508000A602046FFF710FF636A1BB104F1240001F06A
S31508000A7061F838B14FF080522B4B1A60BFF34F8F95
S31508000A80BFF36F8FFFF780FE012004B0BDE8F08743
S31508000A90019D1DB9FFF778FE0020F6E716B902A8F2
S31508000AA001F0BEF8FFF770FE00F000FEFFF75CFEEF
S31508000AB094F84430FF2B08BF84F8448094F84530F6
S31508000AC0FF2B08BF84F84580FFF75EFE01A902A840
S31508000AD001F0B2F810BBFFF747FEA66BE56BFFF710
S31508000AE053FEAE4214D1019904F1100000F0FEFF46
S31508000AF02046FFF70FFF00F081FE38B94FF080530C
S31508000B00CAF80030BFF34F8FBFF36F8F01269DE7FA
S31508000B102046FFF7FFFE00F071FEF7E72046FFF7D5
S31508000B20F9FE00F06BFEB7E704ED00E010B50246EB
S31508000B3000210120FFF75CFF044638B1002343601B
S31508000B400360C3601A461946FFF776FF204610BDB4
S31508000B5038B54568044601F05FF985420AD1E3686D
S31508000B60013BE36023B91A4619462046FFF764FF9E
S31508000B70012038BD002038BDF8B505461746EFF305
S31508000B8011864FF0BF0282F31188BFF36F8FBFF350
S31508000B904F8F806BEA6B904201D3022B1ED195F8DA
S31508000BA045401A4664B22846FFF76DFE631C10D10D
S31508000BB06B6A0BB9012009E005F1240000F0BAFFC1
S31508000BC00028F7D0002FF5D00120386086F3118869
S31508000BD0F8BD013464B285F84540EBE70020F5E737
S31508000BE038B50C46EFF311854FF0BF0383F3118830
S31508000BF0BFF36F8FBFF34F8F826BC36B9A421BD2C3
S31508000C0090F8453001325BB282635A1C0FD1436AB1
S31508000C100BB9012008E0243000F08CFF0028F8D03A
S31508000C20002CF6D00120206085F3118838BD0133E9
S31508000C305BB280F84530ECE70020F5E72DE9F04394
S31508000C40002604468846374685B0DFF8DC900192D0
S31508000C50FFF78AFDA56BD5B141462046013DFFF752
S31508000C6045FEA563236963B104F1100000F062FF35
S31508000C7038B14FF080522C4B1A60BFF34F8FBFF339
S31508000C806F8FFFF781FD012005B0BDE8F083019D58
S31508000C901DB9FFF779FD0020F6E716B902A800F09E
S31508000CA0BFFFFFF771FD00F001FDFFF75DFD94F84A
S31508000CB04430FF2B08BF84F8447094F84530FF2B66
S31508000CC008BF84F84570FFF75FFD01A902A800F088
S31508000CD0B3FFF0B92046FFF7CBFDA0B1019904F1A7
S31508000CE0240000F003FF2046FFF714FE00F086FDFF
S31508000CF038B94FF08053C9F80030BFF34F8FBFF3B0
S31508000D006F8F0126A4E72046FFF704FE00F076FD64
S31508000D10F7E72046FFF7FEFD00F070FD2046FFF7D7
S31508000D20A7FD0028EDD0B6E704ED00E02DE9F04375
S31508000D30002504462F462E4685B0DFF8149101910A
S31508000D40FFF712FDA36BE3B1013BA363236813B955
S31508000D5001F03EF96060236963B104F1100000F008
S31508000D60E9FE38B14FF08052394B1A60BFF34F8F06
S31508000D70BFF36F8FFFF708FD0125284605B0BDE8CC
S31508000D80F083DDF80480B8F1000F03D1FFF7FCFC0F
S31508000D900025F2E717B902A800F042FFFFF7F4FCB6
S31508000DA000F084FCFFF7E0FC94F84430FF2B08BF02
S31508000DB084F8446094F84530FF2B08BF84F84560F2
S31508000DC0FFF7E2FC01A902A800F036FF40BB204667
S31508000DD0FFF74EFDF0B123683BB9FFF7C5FC606825
S31508000DE001F020F80546FFF7CFFC019904F124002D
S31508000DF000F07CFE2046FFF78DFD00F0FFFC38B9B9
S31508000E004FF08053C9F80030BFF34F8FBFF36F8F91
S31508000E10012795E72046FFF77DFD00F0EFFCF7E791
S31508000E202046FFF777FD00F0E9FC2046FFF720FD96
S31508000E300028EDD0002DA0D0FFF796FC616A19B105
S31508000E40236B1968C1F10501606801F077F89DE721
S31508000E5004ED00E070B5466804460D4600F0DCFF78
S31508000E60864204D1E36801200133E36070BD294658
S31508000E702046FFF75BFF10B1E3680133E36070BDFE
S31508000E802DE9F043002604468846374685B0DFF844
S31508000E90DC900192FFF768FCA36BD3B1414620466C
S31508000EA0E568FFF723FD636AE56063B104F1240092
S31508000EB000F040FE38B14FF080522C4B1A60BFF359
S31508000EC04F8FBFF36F8FFFF75FFC012005B0BDE8BA
S31508000ED0F083019D1DB9FFF757FC0020F6E716B908
S31508000EE002A800F09DFEFFF74FFC00F0DFFBFFF7BE
S31508000EF03BFC94F84430FF2B08BF84F8447094F800
S31508000F004530FF2B08BF84F84570FFF73DFC01A963
S31508000F1002A800F091FEF0B92046FFF7A9FCA0B19F
S31508000F20019904F1240000F0E1FD2046FFF7F2FCE8
S31508000F3000F064FC38B94FF08053C9F80030BFF3AD
S31508000F404F8FBFF36F8F0126A4E72046FFF7E2FC19
S31508000F5000F054FCF7E72046FFF7DCFC00F04EFCF7
S31508000F602046FFF785FC0028EDD0B6E704ED00E043
S31508000F702DE9F04107469046EFF311864FF0BF037F
S31508000F8083F31188BFF36F8FBFF34F8F846B0CB356
S31508000F9090F84450013C6DB2FFF7A8FC6B1CBC638B
S31508000FA013D13B690BB901200BE007F1100000F0E3
S31508000FB0C1FD0028F7D0B8F1000FF4D00120C8F819
S31508000FC0000086F31188BDE8F08101356DB287F817
S31508000FD04450E8E72046F4E770B50446EFF3118578
S31508000FE04FF0BF0383F31188BFF36F8FBFF34F8FA3
S31508000FF0836B3BB1C668FFF779FC0120E66085F391
S31508001000118870BD1846FAE710B50446FFF7ACFB21
S31508001010A46BFFF7B9FB204610BD38B50546FFF7A8
S31508001020A3FBA86BEC6B241AFFF7AEFB204638BD72
S31508001030806B7047FFF7E2BA806C7047816470472F
S3150800104090F84C007047806BB0FA80F04009704702
S31508001050836BC06BC31A5842584170474269064BA6
S315080010609A4201D000207047806A044B9842F9D012
S31508001070B0FA80F040097047F8140020E014002008
S31508001080064A13681968064B19B94FF0FF321A60F9
S3150800109070471268D268D2685268F8E728140020A8
S315080010A0D8140020F8B51B4B1B4E1D680446306843
S315080010B00F460430FFF7FAFA334640B90120316883
S315080010C0164EC96A3268884022EA00023260621CFB
S315080010D007D137B1196812480431BDE8F840FFF75F
S315080010E0C2BA2C441A68A542546007D90D4A10683A
S315080010F01968BDE8F8400431FFF7C1BA0A4A106812
S3150800110019680431FFF7BBFA084B1A68944238BFCE
S315080011101C60F8BD2015002024140020A814002007
S31508001120F81400202C14002028140020D8140020BD
S315080011302DE9F84F4FEA820A804650460D469946F1
S315080011400B9EFFF701FA0746002800F0A6805C20F0
S31508001150FFF7FAF90446002800F09C805246076318
S31508001160A521384604F060FF236BAAF1040A9A44C5
S315080011702AF0070A6B1E04F134020F35597802F873
S31508001180011B13F8011F09B1AB42F7D10A9D4FF0B5
S31508001190000B042D28BF0425271DE562E5643846A3
S315080011A084F843B0C4F850B0FFF75AFAC5F10505FC
S315080011B004F11800FFF754FAC4F854B02461A56185
S315080011C0646284F858B04A4641465046FFF7A0FA8A
S315080011D0206006B13460FFF7C7FA374B374E1A68F6
S315080011E0DFF8148101321A603268002A58D1346057
S315080011F01B68012B25D13248FFF727FA3148FFF73C
S3150800120024FA3148FFF721FADFF8F0902F48FFF764
S315080012101CFA2F4D2F48FFF718FA4846FFF715FA1C
S315080012202846FFF712FA2C48FFF70FFA2B48FFF764
S315080012300CFA2B48FFF709FA2A4BC3F800902A4BF9
S315080012401D600125294A2A49136808680133136075
S31508001250E26A636405FA02F3034314200B60184B31
S31508001260394600FB0230FFF7FEF9FFF78DFAD8F88A
S31508001270003063B13368DA6AE36A9A4207D24FF0FC
S3150800128080521C4B1A60BFF34F8FBFF36F8F2846EF
S31508001290BDE8F88F3846FFF7B1F94FF0FF35F6E7A6
S315080012A0D8F80030002BCCD13368DA6AE36A9A4260
S315080012B098BF3460C5E700BF9414002024140020AA
S315080012C03014002044140020581400206C14002008
S315080012D0C014002080140020E01400200C15002003
S315080012E0F8140020281400202C140020A414002030
S315080012F0A814002004ED00E0F4140020AC1400202B
S3150800130070B50446244DFFF72FFA04B92C68261D3C
S315080013103046FFF7CBF960B91421E06A1F4B414309
S315080013205B5833B901221E4982400B6823EA02033F
S315080013300B60A36A1BB104F11800FFF7B7F9194A45
S315080013401368013313602B689C4218D1314616483E
S31508001350FFF789F9154A136801331360FFF714FA82
S31508001360134B1B6853B12B689C4207D14FF0805230
S31508001370104B1A60BFF34F8FBFF36F8F70BD0E4AC5
S31508001380206B1368013B1360FFF738F92046FFF717
S3150800139035F9FFF775FEE1E7241400203014002024
S315080013A0A8140020A41400200C150020981400206E
S315080013B0F414002004ED00E09414002038B5144B12
S315080013C005461B6898421DD0FFF7CEF96C69FFF7F2
S315080013D0DBF9104B1B689C4216D00F4B1B689C42CE
S315080013E012D00E4B9C4205D1AB6A002B14BF0220CB
S315080013F0032038BD0A4B9C4208D0002C0CBF0420A1
S31508001400012038BD002038BD022038BD042038BD73
S3150800141024140020281400202C140020F81400207E
S315080014200C15002010B50446FFF79EF90CB9034BBE
S315080014301C68E46AFFF7A8F9204610BD24140020AA
S31508001440EFF311834FF0BF0282F31188BFF36F8F5A
S31508001450BFF34F8F08B9034A1068C06A83F311882F
S31508001460704700BF2414002004292DE9F04128BF45
S31508001470042104460E46FFF777F90CB9284B1C6879
S31508001480E26CB24241D0264B43D219688C4245D011
S315080014901B68DD6AB5428CBF00250125E76AA3698A
S315080014A0BA4208BFE662002B4FF01403E664A4BFF5
S315080014B0C6F10506A6611B4E626903FB07639A42DD
S315080014C01AD104F104084046FFF7F0F838B90122AA
S315080014D0154902FA07F70B6823EA07070F60012385
S315080014E01149E26A08689340034314200B6000FB25
S315080014F002604146FFF7B7F83DB14FF080520B4BFB
S315080015001A60BFF34F8FBFF36F8FBDE8F041FFF747
S315080015103BB91D68631B5D425D41BFE70025BDE71A
S315080015202414002030140020A814002004ED00E044
S3150800153070B5044660B3174D2B68984228D0FFF75C
S3150800154013F92046FFF78AFDF0B1261D3046FFF74E
S31508001550ADF801231049E26A086893400343142052
S315080015600B600E4B314600FB0230FFF77CF82B6808
S31508001570E26ADB6A9A4207D34FF08052084B1A6038
S31508001580BFF34F8FBFF36F8FBDE87040FFF7FCB80E
S3150800159070BD00BF24140020A814002030140020B9
S315080015A004ED00E0F8B50546EFF311864FF0BF03EA
S315080015B083F31188BFF36F8FBFF34F8FFFF74EFD8D
S315080015C038B3154B1B68EBB9144BEC6A1B682F1D17
S315080015D0D86A8442384634BF00240124FFF766F8E7
S315080015E001230F49EA6A08689340034314200B60F5
S315080015F00C4B394600FB0230FFF735F886F31188A5
S315080016002046F8BD05F118010748FFF72CF8002415
S31508001610F4E70446F2E700BFA014002024140020D3
S31508001620A814002030140020E014002013B500246C
S31508001630104B00940193782223460F490F48FFF771
S3150800164077FD012814D14FF0BF0383F31188BFF348
S315080016506F8FBFF34F8F4FF0FF32094B1A60094B5C
S315080016601860094B1C6002B0BDE81040FFF7E4B8EB
S3150800167002B010BDD4140020796000085D19000876
S31508001680D8140020F4140020201500204FF0BF03C2
S3150800169083F31188BFF36F8FBFF34F8F0022024B7E
S315080016A01A60FFF75FB800BFF4140020024A1368F7
S315080016B001331360704700BFA0140020014B18685F
S315080016C0704700BF20150020014B1868704700BFFF
S315080016D020150020014B1868704700BF941400209D
S315080016E008B9024B18683430704700BF241400202C
S315080016F02DE9F84F364B1B68002B47D1354B1C6834
S3150800170001341C605CB9344A344B1168186810609F
S31508001710334A1960136801331360FFF7B1FC314D82
S315080017204FF0000B2B68304F9C423ED3DFF8A88061
S31508001730DFF8C490D8F80020126872BB4FF0FF3269
S315080017402A6032E006F1040A5046FEF7AFFFB16A96
S3150800175019B106F11800FEF7A9FF01224FF0140E81
S31508001760F06AD9F8003002FA00F119431F4BC9F89C
S3150800177000100EFB00305146FEF775FF3868F16A17
S31508001780C26A914228BF4FF0010BD3E7184A4FF0BF
S31508001790000B13680133136011E0D8F80020D268F3
S315080017A0D66871688C42CDD229603A680F4BD16AE7
S315080017B014224A439A58022A28BF4FF0010B0D4AB1
S315080017C01268002A18BF4FF0010B5846BDE8F88F7B
S315080017D0A014002020150020281400202C14002016
S315080017E0DC140020D8140020241400203014002013
S315080017F09C14002024150020A81400202DE9F84385
S31508001800FEF7B2FF2A4B1A68013A1A601C682CB117
S315080018100024FEF7B9FF2046BDE8F883254B1B6870
S31508001820002BF5D0DFF8A490234FDFF8A480D9F871
S315080018300030E3B90CB1FFF723FC204D2C6844B106
S3150800184001271F4EFFF754FF00B13760013CF9D15D
S315080018502C601B4B1B68002BDAD04FF08052194BBB
S315080018601A60BFF34F8FBFF36F8F0124D1E7D9F802
S315080018700C300125DC68261D04F11800FEF716FF5A
S315080018803046FEF713FF1420E26A396805FA02F3B8
S315080018900B4300FB028031463B60FEF7E4FE0A4B31
S315080018A0E26A1B68DB6A9A4224BF054B1D60BEE7E5
S315080018B0A014002094140020A81400209C140020D2
S315080018C02415002004ED00E024140020E014002074
S315080018D03014002010B5FFF7E9FE124B04681A68A9
S315080018E06318A24217D29C4219D99A422CBF0021EA
S315080018F00121036019B10021981AFFF7D3FBFFF7FE
S315080019007DFF38B94FF08052074B1A60BFF34F8FEF
S31508001910BFF36F8F10BD9C42E7D90121E9E700218B
S31508001920E7E700BF2015002004ED00E008B540B940
S315080019304FF08052084B1A60BFF34F8FBFF36F8F7B
S3150800194008BDFFF7B3FE0021FFF7ACFBFFF756FF14
S315080019500028EDD008BD00BF04ED00E008B5174E1D
S31508001960174C236863B9174B1B68012BF8D94FF03E
S315080019708052154B1A60BFF34F8FBFF36F8FEFE797
S31508001980FFF794FE3568FFF739FF002DE9D0FEF71B
S31508001990EBFEF368DD68281DFEF788FE0B4A136820
S315080019A0013B13602368013B2360FEF7EDFE286BBD
S315080019B0FEF724FE2846FEF721FED2E70C15002086
S315080019C0981400203014002004ED00E09414002040
S315080019D0124B30B51A68124B12B101221A6030BD8B
S315080019E01A60104B1B68B3FA83F31420DBB2C3F1F9
S315080019F01F0300FB03F20C498C18656808326D68F2
S31508001A000A44954200FB031308BF6A68656008BF6D
S31508001A1062605B68DA68054BE0E700BFA014002047
S31508001A2024150020A81400203014002024140020B7
S31508001A3070B50446264EFEF797FE04B93468251D90
S31508001A402846FEF733FE60B91421E06A214B41436C
S31508001A505B5833B90122204982400B6823EA020306
S31508001A600B60A36A1BB104F11800FEF71FFE294696
S31508001A701A48FEF7F8FD94F85830194D012B04BFA3
S31508001A80002384F85830FEF77FFE2A682AB1FEF74D
S31508001A906BFEFFF7F5FAFEF777FE33689C4216D120
S31508001AA02B6843B14FF080520E4B1A60BFF34F8F2D
S31508001AB0BFF36F8F70BD094A11680B4A12689142CD
S31508001AC001D1336070BDBDE87040FFF781BF70BDBE
S31508001AD02414002030140020A8140020F814002034
S31508001AE0F414002004ED00E09414002010B50C4610
S31508001AF0054B19681831FEF7C2FD2046BDE81040AF
S31508001B000121FFF7CFBA00BF2414002010B51446F0
S31508001B10074B41F000411A68916119681831FEF7C0
S31508001B20A2FD2046BDE810400121FFF7BBBA00BF61
S31508001B302414002038B5C368DC6804F11805284663
S31508001B40FEF7B4FD114B1B68E3B9251D2846FEF7C1
S31508001B50ADFD01230E49E26A086893400343142049
S31508001B600B6029460B4B00FB0230FEF77CFD0A4B47
S31508001B70E26A1B68DB6A9A4285BF0120074B002090
S31508001B80186038BD29460648EFE700BFA0140020B4
S31508001B90A814002030140020241400202415002046
S31508001BA0E014002070B50125C46841F000410160C9
S31508001BB0261DFEF77BFD3046FEF778FD0B49E26AE7
S31508001BC0086805FA02F3034314200B60084B3146F4
S31508001BD000FB0230FEF747FD064BE26A1B68DB6A2C
S31508001BE09A4284BF044B1D6070BD00BFA814002034
S31508001BF030140020241400202415002010B50446B3
S31508001C00FEF7B2FD044B1B682360044B1B68636038
S31508001C10BDE81040FEF7B8BDDC14002020150020F2
S31508001C20034B1B680360034B1B684360704700BF88
S31508001C30DC1400202015002070B50D460446FEF77A
S31508001C4093FD0E4B1A682B68591C0FD00C48266852
S31508001C5000686168864201D08A420CD2521A9A42BA
S31508001C6009D29B1A2B602046FFF7DAFF0024FEF7FD
S31508001C708BFD204670BD0124F9E700BF2015002022
S31508001C80DC1400200122014B1A607047241500203D
S31508001C9000B1806C704700B18164704770B50C461E
S31508001CA0164610BB1B4A156805F134026260EA6ADB
S31508001CB0052B22612A6B2560E2616A6CA260EA6CD8
S31508001CC062614FF00002A2611DD0124909688D4277
S31508001CD00DD12273DEB1296B0A46531A12F8010B8D
S31508001CE0A528FAD09B08238470BD0546DCE7032B9C
S31508001CF02373EFD1FFF7DAFCAB6A0BB10223237328
S31508001D00FFF77CFDE6E7FFF759FB2073E2E7268439
S31508001D1070BD00BF241400202DE9F84F0D688146D8
S31508001D200C4692461DB300254FF0240B4B6801F173
S31508001D3008075B68BB424B6004BFCB684B604B68C7
S31508001D40D3F80C8063680BFB05915B6801229F4200
S31508001D50636008BFE36805F1010508BF636063684F
S31508001D60DE6853463046FFF799FFB045EAD1284664
S31508001D70BDE8F88F2DE9F84305461746FFF796FCA8
S31508001D801F4B1B688B4239D84FF00008242644465F
S31508001D90DFF8809008F1500106FB045001224944FF
S31508001DA0FFF7BAFFA8F1140818F1640F0444F1D13B
S31508001DB0144B0222196806FB0450FFF7ADFF124BBD
S31508001DC004441968022206FB0450FFF7A5FF0444E1
S31508001DD004220E4906FB0450FFF79EFF044406FB47
S31508001DE0045003220A49FFF797FF04440FB1002362
S31508001DF03B60FFF703FD2046BDE8F8830024F8E7BB
S31508001E0094140020281400202C1400200C150020FF
S31508001E10F814002030140020014B1868704700BFE2
S31508001E20241400202DE9F0410446002842D0244A13
S31508001E30C36A11681746C96A8B4232D21426826968
S31508001E40204D002AA8BF3A6806FB0353A2BFD26AF0
S31508001E50C2F10502826142699A422DD100F1040855
S31508001E604046FEF723FC184B48B9E06A4643AA5990
S31508001E702AB901211A68814022EA01021A603A68E1
S31508001E801968D26AE262012404FA02F0084318606B
S31508001E901420414600FB0250FEF7E5FB0120BDE891
S31508001EA0F0811368C06CDC6AA0422CBF00200120B8
S31508001EB0BDE8F081BDE8F0813B68DB6AC362EDE707
S31508001EC02414002030140020A8140020F8B5044675
S31508001ED008B90020F8BD036DC16AC26C013B914286
S31508001EE00365F6D0002BF4D1051D2846FEF7DEFB68
S31508001EF0104E114A50B91421E76A794373582BB921
S31508001F0001201368B84023EA00031360E36CC3F1A9
S31508001F100501E362A1610124116804FA03F008438C
S31508001F2010601420294600FB0360FEF79CFB204640
S31508001F30F8BD00BF30140020A8140020F8B50446E8
S31508001F40002834D0C36C994238BF1946C36A8B42FD
S31508001F502DD0026D012A2AD11426154D826906FB59
S31508001F600353002A4269C162A4BFC1F10501816118
S31508001F709A421CD1071D3846FEF798FBE26A0D4CBB
S31508001F8040B95643AB592BB901212368914023EA3E
S31508001F900103236001231420216893400B43236027
S31508001FA0394600FB0250BDE8F840FEF75CBBF8BDB9
S31508001FB030140020A8140020044B1A6890691A6887
S31508001FC01B68DB6AC3F1050393617047241400207C
S31508001FD0044B1A681AB119680A6D01320A6518683D
S31508001FE0704700BF2414002070B5164C06460D46EF
S31508001FF0FEF7BAFB23685B6D7BB90121236883F87A
S31508002000581055B12846FFF74DF84FF080520E4B41
S315080020101A60BFF34F8FBFF36F8FFEF7B5FBFEF75E
S31508002020A3FB23685D6D1DB123684EB100225A6576
S315080020300022236883F85820FEF7A6FB284670BDC1
S315080020406A1EF4E72414002004ED00E02DE9F041AF
S315080020501E4C1E4680460F461546FEF785FB23682E
S3150800206093F85830022B14D0012123685A6D22EABE
S3150800207008025A65236883F8581056B13046FFF7A8
S3150800208011F84FF08052124B1A60BFF34F8FBFF30F
S315080020906F8FFEF779FBFEF767FB15B123685B6D5B
S315080020A02B602368002293F85830022B09BF0125BC
S315080020B000252368596D04BFB9435965236883F819
S315080020C05820FEF761FB2846BDE8F081241400205D
S315080020D004ED00E0F8B51D4604460F461646FEF721
S315080020E043FB0DB1636D2B60022394F85850721EA2
S315080020F0EDB284F85830032A0AD8DFE802F002065F
S315080021000410616D0F43676502E0636D0133636513
S31508002110012D08D00125FEF737FB2846F8BD022D0C
S31508002120F1D10025F7E7261D3046FEF7BFFA0E491E
S31508002130E26A086805FA02F3034314200B600B4BA6
S31508002140314600FB0230FEF78EFA094BE26A1B683D
S31508002150DB6A9A42DED94FF08052064B1A60BFF30B
S315080021604F8FBFF36F8FD6E7A814002030140020D6
S315080021702414002004ED00E02DE9F041069F0446F2
S31508002180EFF311864FF0BF0080F31188BFF36F8F0E
S31508002190BFF34F8F0BB1606D1860022394F8585047
S315080021A0013AEDB284F85830032A0AD8DFE802F07B
S315080021B002060410636D1943616502E0636D01331D
S315080021C06365012D08D0012086F31188BDE8F081EA
S315080021D0022DF1D10020F7E7124B1B68DBB904F199
S315080021E004084046FEF762FA0F4A1420E36A1168AB
S315080021F09D400D43414615600C4A00FB0320FEF73F
S3150800220032FA0B4BE26A1B68DB6A9A42DBD9012079
S315080022102FB13860D8E704F118010648EFE7064BF6
S315080022201860D1E7A0140020A8140020301400205C
S3150800223024140020E0140020241500202DE9F04184
S3150800224004460E46EFF311874FF0BF0383F3118858
S31508002250BFF36F8FBFF34F8F022390F8585080F863
S315080022605830436DEDB20133012D43651DD1144B32
S315080022701B68F3B900F104084046FEF717FA114A3D
S315080022801420E36A11689D400D43414615600E4AC5
S3150800229000FB0320FEF7E7F90C4BE26A1B68DB6AD2
S315080022A09A4202D9012346B1336087F31188BDE803
S315080022B0F08100F118010648ECE7064A1360F4E7D6
S315080022C0A0140020A8140020301400202414002094
S315080022D0E01400202415002010B580B9094B1C68AD
S315080022E0FEF742FA002094F85830022B0ABF84F809
S315080022F0580004460124FEF747FA204610BD044656
S31508002300EEE700BF241400207047704710B54FF061
S31508002310FF320024044BDA601C61DA60DC6001F0ED
S3150800232008FA204610BD00BF0010024010B504464A
S3150800233002F03EFB4FF47A73B0FBF3F000F002F9BB
S31508002340002221464FF0FF3000F09CF8002010BD17
S31508002350074A08B51368032043F01003136000F01A
S315080023607FF80020FFF7E2FF01F0E2F9002008BD40
S3150800237000200240024A136801331360704700BF09
S3150800238028150020014B1868704700BF2815002043
S3150800239013B50190FFF7F6FF0446FFF7F3FF019B1D
S315080023A0001B9842F9D302B010BD0000024A136818
S315080023B023F002031360704710E000E0024A136836
S315080023C043F002031360704710E000E000487047CE
S315080023D000040001044B1868044B93FAA3F3B3FAFC
S315080023E083F3D840704700BF002004E00000FFFFD9
S315080023F0024B1868C0F30B00704700BF002004E0CA
S31508002400024A536843F0010353607047002004E012
S31508002410024A536823F0010353607047002004E022
S31508002420024A536843F0020353607047002004E0F1
S31508002430024A536823F0020353607047002004E001
S31508002440024A536843F0040353607047002004E0CF
S31508002450024A536823F0040353607047002004E0DF
S31508002460074A0002D36800F4E06023F4E0631B0423
S315080024701B0C43F0BF6343F400330343D360704738
S3150800248000ED00E0174B30B5DC68C4F30224C4F154
S315080024900703251D042B28BF0423062D4FF001052D
S315080024A098BF002405FA03F303F1FF3388BF033C02
S315080024B01940A14005FA04F4013C2240002842EAEA
S315080024C001024FEA0212AFBF00F16040064B00F06E
S315080024D00F00D2B2A5BFD2B200F561401A5480F8F7
S315080024E0002330BD00ED00E014ED00E001234209B1
S315080024F000F01F0003FA00F0014B43F82200704772
S3150800250000E100E00122430900F01F0002FA00F092
S31508002510024A203342F82300704700BF00E100E07A
S31508002520BFF34F8F0549064BCA6802F4E0621343AE
S31508002530CB60BFF34F8F00BFFDE700BF00ED00E0A3
S315080025400400FA050138B0F1807F0AD2F021064B63
S31508002550064A586082F823100020072298601A60FD
S3150800256070470120704700BF10E000E000ED00E072
S31508002570024BD868C0F30220704700BF00ED00E0A8
S3150800258070B50028ACBF00F16040134C01F007019C
S31508002590B5BF00F00F0000F56140255C90F80053C8
S315080025A0C1F107000C1D042828BF0420062C98BF7B
S315080025B000214FF001044FEA151588BF033925FAA3
S315080025C001F604FA00F004FA01F101380139304045
S315080025D029401060196070BD14ED00E0012243091E
S315080025E000F01F0002FA00F0024A403342F82300C6
S315080025F0704700BF00E100E04309054A403352F83E
S31508002600233000F01F0023FA00F000F001007047A5
S3150800261000E100E00122430900F01F0002FA00F081
S31508002620024A603342F82300704700BF00E100E029
S315080026304309054A803352F8233000F01F0023FA75
S3150800264000F000F00100704700E100E0044B0428A8
S315080026501A680CBF42F0040222F004021A6070479E
S3150800266010E000E0704708B5FFF7FCFF08BD10B59D
S3150800267000B390F821300BB980F82030846843689D
S3150800268001682343C4680A682343046922F47F5215
S315080026902343446922F03002234384692343C469EF
S315080026A0234313430B600122002380F82120436350
S315080026B0184610BD012010BD10B5002800F0848012
S315080026C090F82130022B7FD0036840491A688B4264
S315080026D022F001021A604FF000021A605A609A60EE
S315080026E0DA604AD03A4A934249D01432934248D0E3
S315080026F01432934248D01432934248D0143293424B
S315080027000CBF4FF400124FF00072324C8B426260DD
S3150800271040D02F4A93423FD0143293423ED01432CF
S3150800272093423ED0143293423ED0143293420CBFA9
S315080027304FF400024FF00062264C8B42626036D09E
S31508002740234A934235D01432934234D014329342FA
S3150800275034D01432934234D0143293420CBF4FF41F
S3150800276080034FF080631B4A53600023436380F85D
S31508002770213080F82030184610BD0222C5E72022F5
S31508002780C3E74FF40072C0E74FF40052BDE74FF4B9
S315080027900032BAE70822CFE78022CDE74FF400627D
S315080027A0CAE74FF40042C7E74FF40022C4E7042300
S315080027B0D9E74023D7E74FF48063D4E74FF4804343
S315080027C0D1E74FF48023CEE7012010BD0800024070
S315080027D01C0002400000024030B590F82040012C51
S315080027E04FF0020417D0012580F82140046880F8CC
S315080027F02050256825F001052560636043680020A0
S31508002800102B0BBFA260A160E160E260236843F071
S315080028100103236030BD204630BD30B590F8204016
S31508002820012C4FF0020423D0012580F821400468CA
S3150800283080F82050256825F0010525606360436807
S315080028400020102B0BBFA260A160E160E260236844
S3150800285043F002032360236843F0040323602368DC
S3150800286043F008032360236843F00103236030BD67
S31508002870204630BD026838B51368044623F00103C4
S315080028801360FFF77FFD05462368186810F00100FE
S3150800289005D1012384F8200084F8213038BDFFF7DC
S315080028A071FD401BB0F57A7FEED9636B032043F0C8
S315080028B020036363002384F8210084F8203038BDA0
S315080028C02DE9F84F05461746884604687D4E0029C7
S315080028D04CD1B44260D07C4B9C425FD014339C42AE
S315080028E05ED014339C425ED014339C425ED01433BF
S315080028F09C420CBF4FF400144FF00074FFF742FDE2
S315080029008146DFF8C4A1DFF8D0B1704A7049714832
S31508002910DFF8C8E113681C422B6857D0B8F1000FDE
S3150800292040F0AA80B34200F09A80674A934200F0CA
S3150800293098801432934200F096801432934200F045
S3150800294095801432934200F09480143293420CBF5F
S315080029504FF400134FF000735C4A536001230020C4
S3150800296085F8213085F82000BDE8F88FB44220D0DC
S31508002970554B9C421FD014339C421ED014339C42A4
S315080029801ED014339C421ED014339C420CBF4FF405
S3150800299080044FF08064B1E70224AFE72024ADE756
S315080029A04FF40074AAE74FF40054A7E74FF4003435
S315080029B0A4E70424A2E74024A0E74FF480649DE737
S315080029C04FF480449AE74FF4802497E7B342D2F84D
S315080029D000C01FD053451FD05B451FD08B4220D067
S315080029E0834221D073450CBF4FF400034FF00063B8
S315080029F013EA0C0F1BD0354A012053606B6B43F06A
S31508002A0001036B63042385F82130002385F8203001
S31508002A10BDE8F88F0823EBE78023E9E74FF4006366
S31508002A20E6E74FF40043E3E74FF40023E0E77B1CB7
S31508002A303FF470AF5FB96B6B032043F020036B6301
S31508002A40002385F8210085F82030BDE8F88FFFF7C8
S31508002A5099FCA0EB09008742BFF457AFEBE70223C6
S31508002A607AE7202378E74FF4007375E74FF40053AD
S31508002A7072E74FF400336FE7B34216D0124A934217
S31508002A8015D01432934214D01432934214D014320F
S31508002A90934214D0143293420CBF4FF480034FF084
S31508002AA080630A4A5360112359E70423F9E7402350
S31508002AB0F7E74FF48063F4E74FF48043F1E74FF408
S31508002AC08023EEE7080002401C0002400000024096
S31508002AD04400024058000240300002406C000240A8
S31508002AE070B502685F4D604BAA420446196800F04B
S31508002AF091801C339A4200F08F8014339A4200F07A
S31508002B008D8014339A4200F08C8014339A4200F078
S31508002B108B8014339A420CBF4FF400034FF00063C6
S31508002B200B4216D01168080713D5116821F0080161
S31508002B3011604D4A5360636B43F0010363630423DA
S31508002B4084F82130002384F82030236B0BB120460B
S31508002B509847454B19682368AB4268D0434A934265
S31508002B6067D01432934266D01432934266D0143238
S31508002B70934266D0143293420CBF4FF480024FF052
S31508002B8080620A4212D0196849070FD519688E065D
S31508002B905EBF196821F004011960334B5A6011238E
S31508002BA084F82130E36A0BB1204698472E4B196802
S31508002BB02368AB4248D02D4A934247D014329342F9
S31508002BC046D01432934246D01432934246D0143239
S31508002BD093420CBF4FF400124FF000720A4240D0E5
S31508002BE0196888073DD5196889065EBF196821F0F6
S31508002BF0020119601C4B5A60636B6363012384F8F6
S31508002C002130002384F82030A36A53B32046BDE858
S31508002C1070401847082383E7802381E74FF4006351
S31508002C207EE74FF400437BE74FF4002378E704225E
S31508002C30A7E74022A5E74FF48062A2E74FF4804257
S31508002C409FE74FF480229CE70222C7E72022C5E7C8
S31508002C504FF40072C2E74FF40052BFE74FF4003258
S31508002C60BCE770BD08000240000002401C0002409C
S31508002C7090F821007047406B70470000104BDA68E7
S31508002C80D00641BF0F49CA6942F00202CA61DB6831
S31508002C90590741BF0B4AD36943F00103D361084B77
S31508002CA0DA69D20708D50749CA6942F00402CA6137
S31508002CB0DA6922F00102DA611422DA60704700BF8D
S31508002CC0002002403015002070B51D46134B1446EF
S31508002CD01A7E012A20D00122114E1A76326901285D
S31508002CE042F4A05232619960C3E904450CD103222B
S31508002CF01A70586000200A4AD8611369A4B243F0D2
S31508002D00010313610C8070BD02284FF00402EFD056
S31508002D10052018705A60EDE7022070BD30150020B6
S31508002D200020024070477047424B70B5DA68424C43
S31508002D3012F0100F02D1DB685A070AD54FF0FF339D
S31508002D40A568A360FFF79AFF2846FFF7ECFF002364
S31508002D502370384DEB689B0618D52023EB60237843
S31508002D60A3B12378012B27D16368013B63606368AD
S31508002D70DBB1A068FFF7D6FFA06800F58060A06009
S31508002D802B6923F002032B6100F0AEFA237803F0D7
S31508002D90FF014BB9274B1A6922F007021A611A6913
S31508002DA022F4A0521A61217670BD4FF0FF30A06060
S31508002DB02370FFF7B7FFE9E72378022B09D12B69C0
S31508002DC0002023F004032B61FFF7ACFF00232370D8
S31508002DD0DCE76368013B63606368D3B1A3680233C9
S31508002DE0A360A668D4E90401020C42EA01420B0C6E
S31508002DF0C4E904232B6923F001032B61D4E90423D6
S31508002E000023E3612B6992B243F001032B61328000
S31508002E10BCE72378032B06D1A068FFF783FF4FF0A2
S31508002E20FF33A360D2E72378A068042B0CBF0238CF
S31508002E300638F2E70020024030150020064B1A69D2
S31508002E40120641BF054A00205A6002F188324CBF7B
S31508002E505A600120704700BF0020024023016745E1
S31508002E60034A0020136943F080031361704700BFCB
S31508002E7000200240064B186910F4007009BF054A85
S31508002E8001209A6002F1883208BF9A60704700BF35
S31508002E900020024023016745034A0020136923F4F2
S31508002EA000731361704700BF0020024008B5FFF7A2
S31508002EB037FB002008BD0000014BD869704700BFEA
S31508002EC030150020F8B50646FFF75CFA114C0746A0
S31508002ED02546E368D80712D4E368990644BF202339
S31508002EE0E360EB68DA0606D4EB69DB0703D4E86827
S31508002EF010F0040002D0FFF7C1FE0120F8BD731CD4
S31508002F00E7D00EB90320F8BDFFF73CFAC01B86428E
S31508002F10DFD2F7E7002002402DE9F84F1F4C99460B
S31508002F20237E0546012B0F46904633D001234CF2EB
S31508002F3050302376FFF7C6FF40BB012D03D0022D84
S31508002F400CBF022504250026B246DFF854B032012C
S31508002F5040464946FDF7E6F8C4F81CA0DBF81030F1
S31508002F6080B243F00103CBF8103027F816004CF274
S31508002F705030FFF7A7FFDBF8103023F00103CBF83A
S31508002F80103018B90136F3B29D42E0D800232376F3
S31508002F90BDE8F88F0220BDE8F88F00BF3015002085
S31508002FA0002002400022064BDA61064B1A6942F0FD
S31508002FB004021A611A6942F040021A61704700BF9A
S31508002FC0301500200020024038B505464CF2503036
S31508002FD0FFF778FF10BB124B124CD86123694CF2ED
S31508002FE0503043F020032361236943F040032361F3
S31508002FF0FFF768FF236923F02003236170B923696B
S31508003000ADB243F010032361074B4CF250301D80DC
S31508003010FFF758FF236923F01003236138BD00BF6B
S31508003020301500200020024000F8FF1F38B5124C6A
S315080030304CF25030E36913F0020F14BF0025A525A2
S31508003040FFF740FFB8B90D4AD06123694CF25030FA
S3150800305043F020032361236943F040032361FFF70C
S3150800306031FF236923F02003236120B92846BDE8F0
S315080030703840FFF7A9BF38BD0020024030150020B0
S315080030802DE9F0417A4D06462B7E012B00F0EC80A7
S31508003090012033682876DC0740F1A1807368754FF4
S315080030A08342B468D7F820804CF2503050D1FFF7ED
S315080030B009FF50BBE861FFF7B9FF30BB3A6928EA58
S315080030C00404E3B242F01002FF2B3A610CD1C4F3B8
S315080030D00723FF2B1DD1C4F30743FF2B24D1240E4E
S315080030E0FF2C2CD1002009E0634A4CF2503011899C
S315080030F00B401381FFF7E6FE0028E8D05D4A136906
S3150800310023F010031361002869D000232B76BDE84D
S31508003110F081594A4CF2503051890B405381FFF7E0
S31508003120D1FE0028D7D0E9E7534A4CF250309189AE
S315080031300B409381FFF7C6FE0028D0D0DEE74E4B42
S31508003140DA891440DC814CF25030FFF7BBFED5E734
S31508003150FFF7B8FE0028D8D1E861FFF767FF002817
S31508003160D3D13A6944EA0804E3B242F01002FF2BCD
S315080031703A6110D1C4F30723FF2B18D1C4F30743D0
S31508003180FF2B20D1240EFF2CACD03B4AD3899BB20F
S315080031901C43D481D7E738494CF250300A8992B299
S315080031A013430B81FFF78EFE0028A7D1E2E73249C9
S315080031B04CF250304A8992B213434B81FFF782FE94
S315080031C00028DBD09AE72C494CF250308A8992B213
S315080031D013438B81FFF776FE0028D3D08EE733683A
S315080031E0990704D5307CFFF7EFFE00288DD13368A8
S315080031F05A071BD54CF25030777CFFF763FE002840
S3150800320083D11C4CE861236947F0880743F0100313
S315080032102361194B4CF250305F80FFF753FE236948
S3150800322023F01003236100287FF46FAF33681B0770
S315080032307FF56BAF4CF250307769367EFFF742FE6A
S3150800324000287FF462AF0B4CE8612369B6B243F0FD
S31508003250100323614CF250303E80FFF733FE23699A
S3150800326023F01003236150E70220BDE8F08100BF78
S31508003270301500200020024000F8FF1F07230360D6
S315080032800A4B1A6A8260DA6912F0020F14BF00222A
S31508003290A5220274DB69042292FAA2F2B2FA82F239
S315080032A003F01C03D3404374704700BF002002405C
S315080032B00B4B98420B4BD86909D14FF47F3393FADD
S315080032C0A3F3B3FA83F300F47F30D84070474FF086
S315080032D07F7393FAA3F3B3FA83F300F07F70F4E7EE
S315080032E004F8FF1F002002400022064BDA61064B55
S315080032F01A6942F002021A6158611A6942F04002DC
S315080033001A61704730150020002002402DE9F0416F
S31508003310234D07462B7E8846012B3DD001240368A2
S315080033202C76022B4CF2503013D1FFF7CBFD20B18F
S31508003330012000232B76BDE8F081FFF733FE4CF21F
S315080033405030FFF7BFFD174A136923F004031361D2
S31508003350EFE7FFF7B7FD0028EAD14FF0FF33C8F8CB
S3150800336000302046BE680F4CFA68BB6803EB822320
S315080033709E42DED23046FFF7B7FF4CF25030FFF7D9
S31508003380A1FD236923F00203236110B1C8F8006088
S31508003390CFE706F58066E7E70220BDE8F08100BFC3
S315080033A03015002000200240114A38B5137E012B43
S315080033B01AD001231178137601F0FF04B1B90D4D27
S315080033C0296941F4A05129610168022904D11170C3
S315080033D0FFF7E8FD204638BD1370C3688068536060
S315080033E09060FFF781FFF5E7022038BD184638BD23
S315080033F030150020002002402DE9F74F002216461E
S31508003400654BDFF8A4E1DFF8A4C14FF001080C68AA
S3150800341008FA06F808EA0404A0457FD14D68122D7B
S3150800342000F0AF8000F28880022D00F0A7807CD8DB
S31508003430002D00F08E80012D00F09E804FF00F09C0
S31508003440FF2C93BF824606F18045083DD0F800B0B0
S3150800345092BFB500D0F804B0AD0009FA05F82BEA1A
S31508003460080802FA05F588BF00F1040A48EA0505C6
S31508003470CAF80050D1F804A01AF0805F4ED0474D24
S31508003480464FAD6926F0030845F00105BD61BD69E3
S3150800349008F1804805F00105019508F5803806F021
S315080034A0030B019D4FEA8B0BD8F8085009FA0BF964
S315080034B025EA09093A4DA84268D005F58065A8426B
S315080034C066D005F58065A84264D005F58065A842F2
S315080034D00CBF0325042505FA0BF545EA0905C8F8C6
S315080034E008501D681AF4803F14BF2543A5431D6084
S315080034F05D681AF4003F14BF2543A5435D609D68C7
S315080035001AF4801F14BF2543A5439D60DD681AF48D
S31508003510001F14BF2C4325EA0404DC600136102E74
S315080035207FF473AF03B0BDE8F08F032D22D0112DC1
S3150800353084D1CA68043281E71A4FBD4209D012D82D
S31508003540DFF86C904D4504D009F580394D457FF478
S3150800355075AF8A68C2B1012A0CBFC0F81080C0F8DE
S31508003560148008226AE77545F3D06545F1D0DFF87F
S315080035704490EBE7002261E7CA685FE7CA68083249
S315080035805CE7CA680C3259E7042257E70025A2E728
S315080035900125A0E702259EE700040140001002402D
S315080035A00008014000002110000031100000321010
S315080035B000001110000022102DE9F04F00224FF0F4
S315080035C001094FF00F0C4FF0040A304CDFF8C4B075
S315080035D031FA02F301D1BDE8F08F09FA02F30B4084
S315080035E04CD0FF2B98BF07466FEA030385BF02F14D
S315080035F08045083DD0F800E0D0F804E094BF950077
S31508003600AD000CFA05F62EEA06060AFA05F588BF95
S31508003610071D2E433E60C56802F003071D40C560BE
S3150800362022F0030505F1804505F58035AE68BF0033
S315080036300CFA07F806EA080E154EB04220D006F531
S315080036408066B0421ED006F58066B0421CD058454A
S315080036500CBF03260426BE40B6450FD1AE6826EA3F
S315080036600806AE6025681D40256065681D406560D2
S31508003670A5681D40A560E5682B40E3600132A7E711
S315080036800026E8E70126E6E70226E4E7000401400B
S3150800369000080140001401408368194214BF012044
S315080036A0002070470AB1016170470904FBE7C36847
S315080036B05940C16070474FF4803382B00193019B33
S315080036C00B430193019B83618161019B836183693C
S315080036D00193806980F48030C0F3004002B07047DF
S315080036E07047000008B5044B5969014202D0586179
S315080036F0FFF7F6FF08BD00BF00040140034A136840
S3150800370023F07F031943014311607047000001400D
S31508003710024A136843F080031360704700000140B3
S31508003720024A136823F080031360704700000140C3
S31508003730704770477047704770472DE9F041044657
S3150800374086B0002860D090F8E93303F0FF021BB971
S3150800375080F8E823FFF7F0FF254603236E4655F861
S31508003760100B84F8E93302F049F80FCD0FC62B6821
S3150800377004F10408336098E80E00206802F02EF879
S315080037800021206802F044F800212346224601263B
S31508003790084604F1100582F82810918601310F2990
S315080037A082F8296082F82B009063D063106402F1D6
S315080037B02002F0D10022174683F808229A860132A1
S315080037C00F2A83F8097283F80B72C3F81872C3F8C4
S315080037D01C72C3F8207203F12003EDD16E460FCD9B
S315080037E00FC62B68336098E80E00206802F012F8BE
S315080037F0012384F82470206884F8E93302F0EFFA8C
S31508003800002006B0BDE8F0810120FAE7704790F87D
S31508003810E83310B5012B04460ED0012180F8E813D1
S3150800382000F0F9FB206802F0D8FA206801F0DDFF05
S31508003830002084F8E80310BD022010BD90F8E83394
S3150800384010B5012B04460FD0012380F8E833006831
S3150800385001F0D4FF206802F0AFFA206802F0BFFA40
S31508003860002084F8E80310BD022010BD10B50446F8
S3150800387058B1032380F8E933FFF7E0FF2046FFF746
S31508003880C5FF002084F8E90310BD012010BD70476C
S315080038907047704770477047704770477047704762
S315080038A07047704790F8E83310B5012B04460BD0E3
S315080038B0012180F8E81300F0AEFB206802F08DFACB
S315080038C0002084F8E80310BD022010BD90F8E83304
S315080038D010B5012B04460CD00123002180F8E833EB
S315080038E000F099FB206802F07AFA002084F8E803D1
S315080038F010BD022010BD90F8E82310B5012A044631
S315080039000BD0012280F8E82384F82410006802F01E
S315080039105EFA002084F8E80310BD022010BD38B511
S31508003920044648B2002801F07F05B5BF04EB4511EF
S3150800393004EB4111283101F50271C00F0D70487072
S31508003940CB7094F8E8330A61012B09D0012320686B
S3150800395084F8E83301F076FF002084F8E80338BDE0
S31508003960022038BD4BB2002B01F07F02B5BF00EB39
S31508003970421100EB4111283101F50271DB0F10B538
S315080039800A704B7090F8E8330446012B09D00123DE
S3150800399080F8E833006802F0C9F8002084F8E803E4
S315080039A010BD022010BD70B5044601F07F067001F7
S315080039B02518C5F820320023C5F8243285F80932BF
S315080039C094F8E833C5F81C22012B85F808620CD058
S315080039D0012300F50270211884F8E833206802F004
S315080039E033FA002084F8E80370BD022070BD01F0A8
S315080039F07F0100EB4111B1F82402704770B5044607
S31508003A0001F07F06700125182B6400236B640123DF
S31508003A10EA6394F8E82385F829309A4285F82860FD
S31508003A200AD02830211884F8E833206802F00CFA06
S31508003A30002084F8E80370BD022070BD2DE9F34725
S31508003A400446006802F0CDF9000400F1948020686D
S31508003A5002F0C7F941050FD522682046B2F844306E
S31508003A6023F480631B041B0CA2F84430FFF713FFF2
S31508003A7000212046FFF73FFF206802F0B2F947040D
S31508003A8008D52268B2F8443023F480431B041B0C83
S31508003A90A2F84430206802F0A4F9860408D5226802
S31508003AA0B2F8443023F400531B041B0CA2F844302C
S31508003AB0206802F096F9C50418D522682046B2F89F
S31508003AC0403023F004031B041B0CA2F840304FF4CB
S31508003AD03D43A2F84030FFF7E0FE2268B2F84430D2
S31508003AE023F480531B041B0CA2F84430206802F010
S31508003AF078F900051DD52068B0F8443023F4006332
S31508003B001B041B0CA0F84430B0F840309BB243F0BD
S31508003B100803A0F84030B0F840309BB243F00403E5
S31508003B20A0F8403002F05DF9C10402D42046FFF740
S31508003B30B3FE206802F055F982050BD522682046A7
S31508003B40B2F8443023F400731B041B0CA2F844306B
S31508003B50FFF7A0FE206802F044F9C30508D52268DD
S31508003B60B2F8443023F480731B041B0CA2F84430CB
S31508003B7002B0BDE8F0870023C34FDFF81083DFF8F3
S31508003B801093ADF80430ADF806302068B0F844302C
S31508003B909BB2ADF804301B047FF559AFBDF804504D
S31508003BA015F00F0540F0AB80BDF80410038811F03E
S31508003BB010019BB226D13B400380B0F8503094F8F0
S31508003BC028209BB203EBC20300EB4300D0F8043471
S31508003BD0E26BC3F3090363641344E3632046FFF708
S31508003BE057FE94F82430002BCFD0226C002ACCD173
S31508003BF094F82430216843F08003A1F84C3084F807
S31508003C002420C2E7ADF80630BDF806301A051FD5E0
S31508003C10B0F8503094F808229BB203EBC20300EBCD
S31508003C204303D3F80C34B4F80C22C3F30903C4F8DD
S31508003C30243204F57B7102F0DBF9226820461388EA
S31508003C4023F070031B051B0D1380FFF722FE9CE76C
S31508003C50BDF806301B0498D5038823F070031B05AE
S31508003C601B0D0380B0F8503094F808229BB203EB82
S31508003C70C20300EB4303D3F80C34C3F30903C4F8B7
S31508003C80243263B1B4F80C22D4F81C1202F0B0F94D
S31508003C90D4F81C32D4F824221344C4F81C32002168
S31508003CA02046FFF7F4FD2268D4F81852B2F85010EF
S31508003CB03E2D89B201F1060102F5806017D9C5F3D8
S31508003CC04F13EE0604BF03F1FF339BB249EA832381
S31508003CD09BB240F8113013889BB203EA080383F4B9
S31508003CE0405343F4004343F0800313804DE7C5F384
S31508003CF04F03ED0744BF01339BB29B02E8E730F858
S31508003D0025309BB2ADF80630BDF8063019043DD50E
S31508003D1030F825304FEA451A23F070031B051B0DB2
S31508003D2020F8253004EB0A0191F81232002B6FD1E6
S31508003D30B0F8503091F808229BB203EBC20300EBAF
S31508003D404303D3F80C64C6F3090636B1B1F80C225E
S31508003D503346D1F81C1202F04BF904EB0A01D1F8EC
S31508003D602432D1F81C223344C1F82432D1F8203247
S31508003D703244C1F81C221BB1D1F8180286427DD202
S31508003D80A2449AF808122046FFF781FDBDF80630CE
S31508003D901A067FF5FAAE20686E0130F82530A119AB
S31508003DA09BB23B4020F8253091F832300235002B83
S31508003DB070D1B0F8503091F828209BB203EBC203BB
S31508003DC000EB4303D3F8043404EB4515C3F30903A6
S31508003DD06B601BB18A8DC96B02F025F822682644F0
S31508003DE0B2F8503096F828109BB203EBC10302EBE9
S31508003DF04303D3F80424F36BC2F3090272641A442A
S31508003E00336CF2632046002B7AD1FFF741FDBCE6FE
S31508003E1091F8083230F82320DB0012F4804FB0F80E
S31508003E20502092B2134400EB43031DD0D3F8046428
S31508003E30C6F3090636B13346B1F80E22D1F81C127C
S31508003E4002F0D6F804EB0A0393F80812226832F84F
S31508003E50213023F0F0031B051B0D43F4004343F008
S31508003E60C00322F8213078E7D3F80C64C6F30906B4
S31508003E70002EE7D03346B1F81022DFE791F8081292
S31508003E802046FFF790FD81E70F8FFFFF8FBFFFFFEB
S31508003E900080FFFF91F8283030F82320DB0012F06D
S31508003EA0400FB0F8502092B2134400EB43031CD0E5
S31508003EB0D3F8043404EB4515C3F309036B601BB14F
S31508003EC0CA8DC96B01F0AFFFA31993F828102268B1
S31508003ED032F8213023F0F0031B051B0D43F4404351
S31508003EE043F0800322F8213078E7D3F80C3404EB4A
S31508003EF04515C3F309036B60002BE5D00A8EE0E78E
S31508003F00FFF77CFD41E600BF012238B54BB2002B16
S31508003F1001F07F05B5BF00EB451100EB41112831D3
S31508003F2001F50271DB0FEDB28A700D704B7090F8D7
S31508003F30E833044693420ED080F8E823006801F07F
S31508003F40C7FE25B904F57B71206801F057FF0020EC
S31508003F5084F8E80338BD022038BD38B500244BB2D2
S31508003F60002B01F07F02B5BF00EB421100EB4111B7
S31508003F70283101F50271DB0F8C700A704B7090F8CE
S31508003F80E8330546012B09D0012380F8E833006899
S31508003F9001F0D0FE85F8E843204638BD022038BD3A
S31508003FA090F8E83310B5012B044611D0012380F8A8
S31508003FB0E8330B0608D501F07F01006801F03EFCE6
S31508003FC0002084F8E80310BD006801F039FCF7E723
S31508003FD0022010BD006801F013BF006801F019BF88
S31508003FE090F8E903704711F0800F1BBF01F07F01BD
S31508003FF000EB411000EB4110283008BF00F50270B5
S315080040001AB982728380002070470122C3801B0C74
S3150800401082720381F7E7704720BF00BF7047000030
S31508004020044B1A6942F080521A611A6922F08052CA
S315080040301A617047001002404FF4807393FAA3F395
S31508004040B3FA83F301229B0003F1844303F560234B
S315080040501A6070474FF4807393FAA3F3B3FA83F3A5
S3150800406000229B0003F1844303F560231A6070471E
S31508004070184A0168136823F0E0030B431360164BD4
S315080040805A6822F480325A601A6822F480321A601A
S31508004090DA6822F48032DA609A6822F480329A600A
S315080040A04268D10342BF196841F480311960900310
S315080040B042BF596841F480315960D10742BF9968B7
S315080040C041F480319960920742BFDA6842F480323F
S315080040D0DA6070470070004000040140102393FA2C
S315080040E0A3F3B3FA83F301229B0003F1844303F598
S315080040F060231A607047102393FAA3F3B3FA83F385
S3150800410000229B0003F1844303F560231A6070477D
S3150800411090FAA0F00122B0FA80F0024B43F8202072
S31508004120704700BF80000E4290FAA0F00022B0FA55
S3150800413080F0024B43F82020704700BF80000E42F3
S31508004140064A0129136923F00403136101D130BF1C
S31508004150704740BF20BF20BF704700BF00ED00E09A
S315080041600F4A08B51368012923F002031360136880
S3150800417023F0010340EA03000A4B10601A6942F073
S3150800418004021A6105D130BF1A6922F004021A61C5
S3150800419008BD40BFFFF740FFFFF73EFFF4E700BF4B
S315080041A00070004000ED00E0054A136843F0020382
S315080041B01360044A136943F00403136130BF704760
S315080041C00070004000ED00E0024A136943F0020364
S315080041D01361704700ED00E0024A136923F00203F9
S315080041E01361704700ED00E0024A136943F01003BB
S315080041F01361704700ED00E0024A136923F01003CB
S315080042001361704700ED00E07047000010B5054CDB
S315080042106369DB0304D5FFF7F7FF4FF48033636167
S3150800422010BD00BF0004014010B50024104BF82152
S315080042305A6822F003025A601A6822F0847222F43D
S3150800424080321A601A6822F480221A605C601A6842
S3150800425091FAA1F11020B1FA81F122F0F80200FAE0
S3150800426001F10A431A609C60024A034B1A6010BDAA
S315080042700010024000127A000000002003682DE9B1
S31508004280F743DE07054634D42B689C0700F1A78060
S315080042902B681A0723D5AA69BE4C0123BE49002AF2
S315080042A000F0158193FAA3F2B2FA82F241F82230AD
S315080042B0FEF768F80226074696FAA6F396FAA6F3D4
S315080042C0626A96FAA6F3B3FA83F303F01F0322FA97
S315080042D003F3DB0740F1F4800120FEF759F82B6859
S315080042E0590700F11481EA69002A40F093810020F9
S315080042F020E0A84C636803F00C03042B07D063681E
S3150800430003F00C03082B18D16368D80315D54FF4AE
S31508004310003393FAA3F2226893FAA3F3B3FA83F36A
S3150800432003F01F0322FA03F3D907ADD56B68002BF8
S31508004330AAD1012003B0BDE8F0836B68B3F5803FCE
S315080043401CD1236843F480332360FEF71BF84FF42F
S315080043500036074696FAA6F3226896FAA6F3B3FA43
S3150800436083F303F01F0322FA03F3DA078CD4FEF76C
S3150800437009F8C01B6428EDD90320DBE703BB2368D3
S315080043804FF4003623F480332360236823F4802314
S315080043902360FDF7F7FF074696FAA6F3226896FA12
S315080043A0A6F3B3FA83F303F01F0322FA03F3DB073A
S315080043B07FF56AAFFDF7E6FFC01B6428ECD9DBE79B
S315080043C0B3F5A02F236803D143F480232360B8E70D
S315080043D023F480332360236823F48023B4E76D4CE9
S315080043E0636813F00C0F07D0636803F00C03082BFF
S315080043F020D16368DF031DD4022393FAA3F222684F
S3150800440093FAA3F3B3FA83F303F01F0322FA03F331
S31508004410DE0702D52B69012B8BD12168F82393FA85
S31508004420A3F3B3FA83F26B69934021F0F8021343BE
S3150800443023602DE72A69012302B393FAA3F2B2FA9D
S3150800444082F2920002F1844202F584021360FDF7BB
S3150800445099FF0226074696FAA6F3226896FAA6F365
S31508004460B3FA83F303F01F0322FA03F3D807D4D46D
S31508004470FDF788FFC01B0228EDD97DE793FAA3F361
S31508004480B3FA83F39B0003F1844303F584031A60AC
S31508004490FDF778FF0226074696FAA6F3226896FAEB
S315080044A0A6F3B3FA83F303F01F0322FA03F3D9073B
S315080044B07FF5EEAEFDF766FFC01B0228ECD95BE779
S315080044C0FDF760FFC01B02287FF6F6AE54E793FAA5
S315080044D0A3F3B3FA83F341F82320FDF753FF02262B
S315080044E0074696FAA6F396FAA6F3626A96FAA6F32A
S315080044F0B3FA83F303F01F0322FA03F3D8077FF511
S31508004500EEAEFDF73FFFC01B0228EAD934E7214C7F
S31508004510224EE36943F08053E361E36903F0805375
S315080045200193019B336843F480733360FDF72AFFD8
S3150800453007463368DA0526D5EB68012B30D1236A9E
S3150800454043F001032362FDF71DFF02268146B046AC
S3150800455041F2883796FAA6F396FAA6F3002B55D0B9
S31508004560226A98FAA8F3B3FA83F303F01F0322FA30
S3150800457003F3DB073FF5B7AEFDF704FFA0EB090031
S31508004580B842E7D9F8E6FDF7FDFEC01B6428D0D986
S31508004590F2E600BF0010024080044242007000406C
S315080045A033BB236A022623F001032362236A3746B4
S315080045B023F004032362FDF7E5FE41F288398046BD
S315080045C096FAA6F396FAA6F313B3226A97FAA7F30E
S315080045D0B3FA83F303F01F0322FA03F3D8077FF530
S315080045E082AEFDF7CFFEA0EB08004845E8D9C3E642
S315080045F0052B236A03D143F0040323629FE723F0C4
S3150800460001032362236A23F004039BE7626AA8E78F
S31508004610626ADBE7444C636803F00C03082B3FF43B
S3150800462088AE022A4FF0807359D193FAA3F3B3FAEE
S3150800463083F300229B0003F1844303F584031A6085
S31508004640FDF7A0FE4FF00076074696FAA6F3226815
S3150800465096FAA6F3B3FA83F303F01F0322FA03F3D9
S31508004660D90736D42B6AB3F5803F05D16268A968A5
S3150800467022F400320A4362606268696A22F474129C
S315080046800B43134363604FF0807393FAA3F3B3FAB3
S3150800469083F301229B0003F1844303F584031A6024
S315080046A0FDF770FE4FF00075064695FAA5F32268E9
S315080046B095FAA5F3B3FA83F303F01F0322FA03F37B
S315080046C0DA073FF514AEFDF75DFE801B0228ECD92C
S315080046D052E6FDF757FEC01B0228B6D94CE693FAF8
S315080046E0A3F3B3FA83F300229B0003F1844303F593
S315080046F084031A60FDF746FE4FF00075064695FAE4
S31508004700A5F3226895FAA5F3B3FA83F303F01F031A
S3150800471022FA03F3DB077FF5EAADFDF733FE801BCC
S315080047200228ECD928E600BF0010024030B587B051
S315080047300D461022002102A801F076FC02230393FD
S31508004740032305934FF480730A4C0293A36902A9C5
S3150800475043F00403A361A369074803F00403019324
S31508004760019BFEF749FE616821F0E061294361601B
S3150800477007B030BD00100240000801404FF4002386
S3150800478093FAA3F3B3FA83F301229B0003F184435C
S3150800479003F584031A6070474FF4002393FAA3F3D2
S315080047A0B3FA83F300229B0003F1844303F58403E1
S315080047B01A60704730B5204B87B002AC03F110057C
S315080047C0224618685968083303C2AB421446F7D123
S315080047D001238DF804300223184C8DF805306168E2
S315080047E001F00C03082B24D14FF4701393FAA3F3AA
S315080047F0B3FA83F201F47013D34006AA134413F8EC
S31508004800100CCB0313D563684FF4003292FAA2F268
S31508004810B2FA82F203F40033D34006AA134413F81B
S31508004820142C074BB3FBF2F3584307B030BD054BC6
S31508004830FAE70348F9E700BF3860000800100240AD
S3150800484000127A0000093D00554A2DE9F041136827
S31508004850064603F007038B420D4630D332689407A9
S315080048603AD4D00740D44E4A136803F007039D4252
S31508004870C0F0848032684B4C12F0040F40F08980F7
S31508004880130706D56368326923F4605343EAC20303
S315080048906360FFF78FFF6368F02292FAA2F2B2FA1A
S315080048A082F203F0F003D3403F4AD35CD8403F4B33
S315080048B018600020FDF73AFD0020BDE8F081136876
S315080048C023F007030B431360136803F007039942A9
S315080048D0C4D00120BDE8F0813249B0684B6823F0A6
S315080048E0F00303434B60BCE772682E4C012A28D1BB
S315080048F04FF4003393FAA3F1216893FAA3F3B3FABA
S3150800490083F303F01F0321FA03F3D907E1D563689C
S3150800491041F2883823F003031A436260FDF732FD3B
S3150800492073680746012B12D1636803F00C03042B46
S3150800493099D0FDF727FDC01B4045F5D90320BDE8F2
S31508004940F081022A0CBF4FF000730223D2E7022B34
S315080049500FD1636803F00C03082B84D0FDF712FD12
S31508004960C01B4045F5D9E9E7FDF70CFDC01B4045DE
S31508004970E4D8636813F00C0FF6D174E7136823F0D4
S3150800498007032B431360136803F007039D42A0D166
S3150800499070E76368F16823F4E0630B4363606FE7CD
S315080049A0002002400010024061600008000000205C
S315080049B0014B1868704700BF00000020084B4FF4F1
S315080049C0E0625B6892FAA2F2B2FA82F203F4E0635A
S315080049D0D340044AD35C044A1068D840704700BFE5
S315080049E0001002407160000800000020084B4FF4D8
S315080049F060525B6892FAA2F2B2FA82F203F460534A
S31508004A00D340044AD35C044A1068D840704700BFB4
S31508004A100010024071600008000000200F230360A8
S31508004A20204B1A68520330D54FF4A02242605A68C8
S31508004A30F82102F4003282601A6812F0010218BFE7
S31508004A40012202611A6891FAA1F1B1FA81F102F024
S31508004A50F802CA4042611A6A51071DD50522C2608A
S31508004A605A6A12F0010218BF012282611A68D2013D
S31508004A704CBF02220122C2615A6802F480320262E5
S31508004A805B6803F47013436270471A6812F4803245
S31508004A9018BF4FF48032C9E71A6A12F0010218BF2C
S31508004AA00122DCE7001002400F2303600B4B5A6813
S31508004AB002F0030242605A6802F0F00282605A6805
S31508004AC002F4E062C2605B68DB0803F4E06303613A
S31508004AD0034B1B6803F007030B6070470010024086
S31508004AE0002002407047000008B5054B9B681B066E
S31508004AF004D5FFF7F7FF8022024B1A7008BD00BFE6
S31508004B00001002400A10024003682DE9F743DC074B
S31508004B1005461ED53C4C3D4EE36943F08053E361A0
S31508004B20E36903F080530193019B336843F4807370
S31508004B303360FDF727FC07463368D8051FD5236A77
S31508004B4013F4407324D1236A6A6823F44073134329
S31508004B5023622868830706D52B4AA968536823F475
S31508004B6040430B43536010F010000ED0264AE96804
S31508004B705368002023F480030B43536005E0FDF7D8
S31508004B8001FCC01B6428D7D9032003B0BDE8F08315
S31508004B906A6802F440729342D5D0216A4FF4803392
S31508004BA021F4407693FAA3F20127B2FA82F2184862
S31508004BB040F8227093FAA3F30022B3FA83F3C907E5
S31508004BC040F823202662BED5FDF7DCFB0226804688
S31508004BD0374641F2883996FAA6F396FAA6F38BB1C8
S31508004BE0226A97FAA7F3B3FA83F303F01F0322FAAC
S31508004BF003F3DA07A7D4FDF7C5FBA0EB0800484581
S31508004C00E9D9C1E7626AECE700100240007000408B
S31508004C1000044242074B1A6A02F4407242605A681C
S31508004C2002F440428260132202605B6803F4800348
S31508004C30C36070470010024070B504463E4B86B00C
S31508004C4002AD03F110062A4618685968083303C2EC
S31508004C50B3421546F7D101238DF8043002239C424E
S31508004C608DF8053053D0102C17D0012C62D140F2A4
S31508004C700231324A136A1940B1F5817F57D003F4DD
S31508004C804073B3F5007F39D149F64040536A13F0B3
S31508004C90020F08BF002006B070BD284A5468106885
S31508004CA010F08070F7D04FF4701393FAA3F3B3FAA9
S31508004CB083F104F47013CB4006A90B44E10313F8FF
S31508004CC0100C19D553684FF4003191FAA1F1B1FAD5
S31508004CD081F103F40033CB4006A90B4413F8141CE6
S31508004CE0174BB3FBF1F3584353685B02D3D4032342
S31508004CF04000B0FBF3F0CEE7124BF4E7B3F5407F84
S31508004D0018D113684FF2244013F4003FC1E7FFF7A8
S31508004D106DFE0A4B4FF480425B6892FAA2F2B2FA31
S31508004D2082F203F44043D34001335B00E1E74FF4DA
S31508004D300040B0E70020AEE74860000800100240D7
S31508004D4000127A0000093D002DE9F0470568C2689F
S31508004D502B69016923F4405313432B618368EA687E
S31508004D600B43416922F4B05222F00C020B43134361
S31508004D70EB606B69826923F4407313436B61404BA4
S31508004D8081469D424FF0190446D1FFF72FFE04FBDA
S31508004D9000F3D9F804604FF06408B600B3FBF6F3E5
S31508004DA0B3FBF8F31E01FFF721FE6043D9F8043080
S31508004DB09B00B0FBF3F7FFF719FE6043D9F8043000
S31508004DC09B00B0FBF3F3B3FBF8F308FB13731B016B
S31508004DD03233B3FBF8F303F0F007FFF707FE60433F
S31508004DE0D9F804209200B0FBF2FAFFF7FFFD604302
S31508004DF0D9F804309B00B0FBF3F3B3FBF8F308FBD8
S31508004E0013A31B013233B3FBF8F303F00F033B4341
S31508004E103344AB60BDE8F087FFF7D0FD04FB00F331
S31508004E20D9F804604FF06408B600B3FBF6F3B3FB99
S31508004E30F8F31E01FFF7C2FD6043D9F804309B0062
S31508004E40B0FBF3F7FFF7BAFD6043D9F804309B00CF
S31508004E50B0FBF3F3B3FBF8F308FB13731B01323310
S31508004E60B3FBF8F303F0F007FFF7A8FD6043D9F8A2
S31508004E7004209200B0FBF2FAFFF7A0FDB7E700BFE7
S31508004E8000380140F8B504460E461546FDF77AFA8D
S31508004E9007462268136836EA030301D10020F8BDE5
S31508004EA06B1CF7D0C5B923680320DA6822F08002A4
S31508004EB0DA60DA6822F02002DA60DA6822F48072B0
S31508004EC0DA605A6922F001025A61012384F83930FE
S31508004ED0002384F83830F8BDFDF754FAC01B854224
S31508004EE0D7D2E0E7704710B5044630B390F83930AA
S31508004EF003F0FF021BB980F83820FFF7F3FF0223FF
S31508004F00226884F83930D368204623F40053D360E6
S31508004F10FFF71AFF236800201A6922F490421A61E3
S31508004F205A6922F02A025A61DA6842F40052DA60B3
S31508004F300123E06384F8393010BD012010BD10B597
S31508004F40044650B390F8393003F0FF021BB980F8D5
S31508004F503820FFF7C7FF0223226884F83930D36860
S31508004F60204623F40053D360FFF7EEFE23680020A3
S31508004F701A6922F490421A615A6922F022025A6189
S31508004F805A6942F008025A61DA6842F40052DA6055
S31508004F900123E06384F8393010BD012010BD38B50F
S31508004FA00D46044678B390F8393003F0FF021BB972
S31508004FB080F83820FFF796FF0223226884F83930F4
S31508004FC0D368204623F40053D360FFF7BDFE236859
S31508004FD000201A6922F400621A615A6922F02A022C
S31508004FE05A611A6942F480421A61196921F020014E
S31508004FF029431961DA6842F40052DA600123E06352
S3150800500084F8393038BD012038BD70B50E461546CE
S315080050100446002830D090F8393003F0FF021BB957
S3150800502080F83820FFF75EFF0223226884F83930BB
S31508005030D368204623F40053D360FFF785FE236820
S3150800504000201A6922F490421A615A6922F02A024B
S315080050505A61196921F00F0131431961DA6822F49E
S3150800506000622A43DA60DA6842F40052DA60012301
S31508005070E06384F8393070BD012070BD704738B5DB
S315080050800546A0B10223002480F839300368DA689F
S3150800509022F40052DA60DC601C615C61FFF7EEFF07
S315080050A0EC6385F8384085F83940204638BD01203C
S315080050B038BD70B50D4690F839100446C9B20129B5
S315080050C01E4601D022294DD1002D49D0002A47D0AD
S315080050D094F83830012B45D0012384F83830002362
S315080050E0E36394F83930A284222B0CBF32231223AF
S315080050F0E28484F83930E28C8AB932464021204667
S31508005100FFF7C0FEC0B994F83930322B0CBF222302
S31508005110012384F83930002384F8383070BDA36839
S31508005120013AB3F5805FE2844FF0800132462046AB
S315080051300DD1FFF7A7FE08B1032070BD2B882268A2
S31508005140C3F308035360236943B90235D3E7FFF76E
S3150800515099FE0028F0D123682A785A600135CAE7F3
S31508005160012070BD022070BD70B51E4690F839301A
S315080051700446DBB2012B0D4601D0122B51D1002D6E
S315080051804DD0002A4BD094F83830012B49D0012352
S3150800519084F838300023E36394F83930A285122B5B
S315080051A00CBF32232223E28584F83930E38D5BB9BC
S315080051B094F839300020322B0CBF1223012384F8CF
S315080051C0380084F8393070BD013BE385A368324660
S315080051D0B3F5805F4FF02001204611D1FFF752FE4C
S315080051E008B1032070BD236822695B6822B9C3F33E
S315080051F0080325F8023BD9E7DBB225F8013BD5E7DA
S31508005200FFF740FE0028ECD1236821696A1C5B6819
S3150800521011B92B701546C9E703F07F03F9E701209A
S3150800522070BD022070BD90F83930DBB2012B01D079
S31508005230222B20D1E9B1E2B190F83830012B1AD0EF
S31508005240012380F838300023C3638284C28490F82F
S31508005250392080F83830222A0CBF3222122280F8F0
S31508005260392002680162D368002043F08003D360C6
S315080052707047012070470220704790F83930DBB23A
S31508005280012B01D0122B28D129B322B390F838303C
S31508005290012B22D0012380F838300023C36382858E
S315080052A0C28590F8392080F83830122A0CBF32228D
S315080052B02222036880F83920DA68816242F4807213
S315080052C0DA605A69002042F001025A61DA6842F04F
S315080052D02002DA60704701207047022070470000FC
S315080052E0134690F8392010B5D2B2012A044601D0E7
S315080052F0222A2ED159B353B394F83820012A28D03C
S31508005300012284F838200022E26394F83920206BC1
S31508005310222A0CBF3222122284F839200E4AA3848C
S31508005320E384216282620D4AC2620D4A02632268E0
S315080053300432FDF772FA6FF04002002023681A6003
S315080053405A6942F080025A6184F8380010BD01207B
S3150800535010BD022010BD00BFD9540008075500082B
S315080053605355000838B5044690F839001346C0B2BC
S31508005370012801D012282BD141B33BB394F8382029
S31508005380012A25D0012284F838200022E26394F805
S315080053903920606B122A0CBF3222222284F8392067
S315080053A00C4AA162A38582620B4A2568C2620B4A2F
S315080053B002630A46291DFDF730FA00202268536960
S315080053C043F04003536184F8380038BD012038BDE6
S315080053D0022038BD135500084755000853550008E4
S315080053E090F83830012B26D0012390F8392080F820
S315080053F03830122A09D10268536923F080035361B1
S31508005400002380F838301846704790F83920222A49
S3150800541004D10268536923F04003F0E790F8392075
S31508005420322A04D10268536923F0C003E7E7002251
S3150800543080F83820E7E70220704790F8383082B0C5
S31508005440012B32D0012390F8392080F83830122AFF
S3150800545008D10268536943F080035361002380F83A
S3150800546038301FE090F83920222A0AD103681A68D2
S3150800547000925A680092009A5A6942F040025A61AC
S31508005480ECE790F83920322A09D103681A680192A4
S315080054905A680192019A5A6942F0C002EFE700225F
S315080054A080F83820184602B070470220FBE70268E9
S315080054B010B553690446006B23F0C003536108B165
S315080054C0FDF7D8F9606B08B1FDF7D4F90123002080
S315080054D084F8393010BD704708B50368426A1B68FE
S315080054E013F020030AD1D38413685A6922F0800284
S315080054F05A61DA6842F04002DA6008BD1046FFF7E2
